:020000040C00EE
:10000000B6B902206502000CA103000CA103000C8C
:10001000A103000CA103000CA103000CA103000C20
:10002000A103000CA103000CA103000CA103000C10
:10003000A103000CA103000CA103000CA103000C00
:10004000A103000CA103000CA103000CA103000CF0
:10026000A103000C08B51B4B00201B491B680A6842
:10027000934227D3194B1A4A1B6812681948D21A9D
:1002800001688B4221D300F0D7F900F073F800F039
:10029000F1FA412000F028FB00F010FC422000F0B1
:1002A00023FBA6F071FF442000F01EFB00F01CF8B9
:1002B00000F02EF8452000F017FB0A2000F014FB98
:1002C00001F022FF43F8040BD1E79958043343F8B7
:1002D000041CD5E778020220C8B6022000000220E4
:1002E000F0E60D0C74020220BFF34F8FBFF36F8F47
:1002F0004FF0E0230022C3F8502FD3F8142D42F41E
:100300000032C3F8142DBFF34F8FBFF36F8F7047C8
:100310004FF0E023F0B5D3F8802D02F00704C2F3CC
:100320004E31C2F3C9020434B2FA82F505F01F055A
:10033000BFF34F8F104601FA04F700FA05F60138B3
:1003400046EA0706C3F8606FF7D20139F2D2BFF36D
:100350004F8FD3F89C2F42F00402C3F89C2FD3F8A0
:10036000142D42F48032C3F8142DBFF34F8FBFF326
:100370006F8FF0BDEFF3148343F0040383F314880D
:100380004FF0E023D3F8342F22F04042C3F8342F4B
:10039000D3F8882D42F47002C3F8882D704700000E
:1003A000EFF305801EF0040F02D0EFF309818D46B4
:1003B0006A4602F16802EFF310831EF0100F0CBFC3
:1003C0002DED108A90B02DE9FC4F6946DFF828D05A
:1003D00000F0F0FBB0E8FC4F1EF0100F0CBFB0ECCB
:1003E000108A40301EF0040F0CBF80F3088880F3A1
:1003F000098883F310887047780A022030B50B789B
:10040000DD0749D54042254D002300F01402244861
:100410001044535503689C07FCD48C790B8943EA3C
:100420000443204C135103685B07FCD48B784C7851
:100430001B0243EA4413CC7823430C7943EA043388
:100440004C8943EA04430C7814F0020F18BF43F4BC
:10045000004314F0040F18BF43F400632407124C48
:1004600048BF43F010031351097811F0100F14BF67
:1004700042230223890648BF43F08003DBB2535571
:1004800003689B07FCD402F1804202F58252136894
:1004900003F00303032BFAD130BD00BF301000403E
:1004A0003C1000403410004038100040F8B503788C
:1004B00004465B4A1B0243F004031360027BD0072F
:1004C00028D5C2F34003510756494FEA830348BF7A
:1004D00043F04003170748BF43F08003D60648BFE8
:1004E00043F48073950648BF43F400435006627B93
:1004F00048BF43F4803343EA025322698A4200F240
:10050000818043F4E05343F00203474A5361136987
:10051000D907FCD504F1360500262F466388334100
:10052000DB0703D53946304600F098F8013604372A
:100530000C2EF3D1237DD80749D53B4A00231377EE
:1005400092F82C309907FBD4637E217E9B0643EA08
:100550000143A18B0B439362334A92F82C30DB06A4
:10056000FBD4227D607DC2F3C001570640F3000337
:1005700048BF41F00801160603F020032A4A43EA67
:10058000010348BF43F01003400748BF43F0800316
:10059000DBB282F8203092F82C305907FBD4227D50
:1005A00012F0020F14BF4223022357071E4A48BF0E
:1005B00043F08003DBB2137792F82C309E07FBD414
:1005C000237D180703D5184A1369D905FCD504F112
:1005D0001E0100200026FFF711FF04F12A0101206F
:1005E000FFF70CFFA3883341DB0703D529463046CC
:1005F00000F034F8013604350C2EF3D162780B4B41
:100600005A70F8BD0A498A4202D843F418537AE76F
:1006100008498A4294BF43F4385343F4585372E76D
:100620000040004100127A00001000400008004025
:100630000024F40000366E010148FFF737BF00BF09
:1006400014210B0C0230012303498340D1F8042C00
:100650001A42FBD1704700BF001000402DE9F04165
:1006600000F180560B780F4606F5E16613F00104A1
:100670004FEA860622D04C789D0748BF44F4806438
:10068000590748BF44F400641A077A8848BF44F405
:100690000054012A0FD9531E134030D044EA0242BD
:1006A00042F4007407E0013349009142FBD344EA6D
:1006B000034343F4805408B944F48074EFF3108882
:1006C00072B6C5B234602846FFF7BCFF18F0010FC0
:1006D00000D162B62846FFF7B5FF3B78DB070CD5A3
:1006E000EFF3108772B644F4807428463460FFF745
:1006F000A9FF17F0010F00D162B6BDE8F081022119
:10070000D3E7EFF3108272B600F1805000F5E46099
:100710008000036823F04003036003685B06FCD499
:1007200012F0010F00D162B6704770B5044615464D
:10073000EFF3108672B6FFF7E4FF04F1805000F586
:10074000E4608000016055B941F040010160036838
:100750005B06FCD516F0010F00D162B670BD41F00A
:10076000C001F3E7436A1C331A68002AFCD17047C2
:1007700038B5C27904464179C2F34002007800F0EE
:100780000BFAA179207800F00FFA207800F0B4F984
:100790000023626A1360226AA0685508010B0005F5
:1007A000401941F100010FF0A7FF4FF6FF72431E01
:1007B00061F10001934271F1000155D2636A404238
:1007C000BF2281B220461A75FFF7CCFF636A998178
:1007D000E379274913F0010FA378E569A3F1050335
:1007E00008BF4FF44031042B06D8DFE803F0032F95
:1007F0003205350041F005016378012B2FD0022B23
:100800002FD045F08045204645F00405FFF7AAFFAC
:10081000636A1D6045F00205FFF7A4FF636A596033
:10082000FFF7A0FF636A1D60E06808B100F06CF894
:10083000206908B100F068F8606908B100F064F858
:10084000A06908B100F060F8002038BD41F0060151
:10085000D2E741F00701CFE741F00101CCE741F4D5
:10086000005145F08245CEE76FF02100EDE700BF73
:1008700040000300054808B5FFF77AFF002804DAB6
:100880004FF49071024800F023FC08BDCC550C0CCD
:100890007C210B0C436A1A6842F001021A601A6844
:1008A000D207FCD4704710B5EFF3108472B6FFF78F
:1008B000F1FFFFF75DFF14F0010F00D162B610BD2C
:1008C00038B5084B01465D6A05F118042378DA074C
:1008D000FCD589B20348FFF745FF298523789B079C
:1008E000FCD538BDCC550C0CFFF7EABFC0F3017046
:1008F000431E022B9DBFC00100F1824000F5004065
:100900000048704700800041024670B5FFF7EEFFD7
:10091000C2F30441012314074FEA124603FA01F31C
:1009200026D5836012F0010311D04D08F607C2F3FB
:10093000036405F130052B5CDBB24BBF03F00F0302
:1009400003F0F00343EA041323432B5401239507D8
:1009500001F1400148BF43F00203540748BF43F090
:100960000403D20648BF43F040030B54002070BD7F
:100970004360D7E7024608B5C2F30442FFF7B6FF6B
:100980000123934009B1836108BD4361FCE76FF027
:1009900018007047426D13685B6A5B8B9BB20B60FB
:1009A00013685B6A188D80B27047436D04221B6820
:1009B0005B6A09B19A7570471A757047436D1B6879
:1009C0005B6A187EC0F380007047436D89B21B6874
:1009D0005B6A19857047436D1B685B6A187E00F07F
:1009E0000100704710B5436DEFF3108472B61A68BA
:1009F0000123526A39B1937500F0D0FF14F0010F52
:100A000000D162B610BD1375F8E7000070B5436DF4
:100A1000024605460A491E68F07801F02DFC04469E
:100A200060B92A460649307901F026FC044628B907
:100A3000F07800F027F9307900F024F9204670BDF5
:100A4000450A000C38B5536D14461B685B6A1A7E64
:100A50001D7D15406A0702D5204600F0D5FFEB0743
:100A600002D5204600F09AFF002038BD03791BB95B
:100A7000436D1868FFF70EBF704703791BB9436DCC
:100A80001868FFF710BF0020704710B5436DBF22F4
:100A90001C68636A1A75E07800F0E0F8207900F0CD
:100AA000DDF80022E078114601F0E6FB0022207913
:100AB0001146BDE8104001F0DFBB0000044BBF2130
:100AC0005A6D1268526A117501221A71704700BF7F
:100AD0000000022010B5054C0548214600F0FAFD43
:100AE00021460448BDE8104000F0F4BD000002209B
:100AF0008F210B0C9C210B0CEFF3108272B6072890
:100B00000DD8DFE800F00411182128313A414FF0E8
:100B10008041D1F8143843F48053C1F8143812F0EE
:100B2000010F00D162B670474FF08041D1F8143800
:100B300043F40053F1E74FF08041D1F8183843F403
:100B40000073C1F81838EAE74FF08041D1F818383F
:100B500043F48063F5E74FF08041D1F8243843F047
:100B60000103C1F82438DAE74FF08041D1F820388A
:100B700043F00103C1F82038D1E74FF08041D1F8AC
:100B8000203843F00203F5E74FF08041D1F82038D8
:100B900043F00403EEE70000024BC9B2185CFFF714
:100BA000C4BD00BFF4550C0C0022C9B20320FFF7EE
:100BB000BCBD000070B50A4D06460C462B680BB94B
:100BC0001C462960304600F0B7F82968304601F02D
:100BD00073FB14B900232C682B60204670BD00BF46
:100BE000780C02200F2810B50CDC03282FDD043808
:100BF0000B282CD8DFE800F0181D222B2B2B2B2BD9
:100C00002B2B2B271038882821D8441100F01F00E7
:100C100003EB840303F1604303F561430B6001239D
:100C200083400020136010BD0A4B0B604FF48033EB
:100C3000F7E7084B0B604FF40033F2E7054B0B600E
:100C40004FF48023EDE7044B0B600123E9E76FF0DD
:100C50001500E8E724ED00E010E000E013B5802384
:100C600001AA69460446FFF7BDFF20B90F2CDDE954
:100C7000003102DD196002B010BD1A6822EA0102DB
:100C80001A60F8E713B5002301AA69460446FFF786
:100C9000A9FF20B90F2CDDE9003102DD196002B097
:100CA00010BD1A680A431A60F9E7000000224FF0ED
:100CB000FF3110B5531120326033A02A4FEA83036D
:100CC00003F1E0231960F5D100214FF0803221F0CB
:100CD0000303013103F16043232903F564431A60E0
:100CE000F5D14FF0E02300240F490B20C3F8182D55
:100CF000C3F81C2DC3F8202D22460C4B1C6001F0BC
:100D0000BBFA22460A49032001F0B6FA22460949F5
:100D1000042001F0B1FA0420FFF7B4FFE02383F3CD
:100D2000118862B610BD00BF690E000C780C02205D
:100D30003D0D000C4D0E000C704700004FF0E023FD
:100D4000F0B5D3F82C4D85B0D3F8287D0646D1F800
:100D500084300D46DFF8ECE0A3F1020CF4450DD32E
:100D6000DFF8E4E0F44509D233F8023CB3F55F4F15
:100D700004D105B0BDE8F04000F076B8630004D5BA
:100D8000264A0020264900F0E3F9244A002025499C
:100D900000F0DEF93346214A00202349009500F097
:100DA000D7F9EFF31183EFF31082EFF30581EFF33F
:100DB0001480D2B2DBB20092184ACDE901101B496F
:100DC000002000F0C5F94FF0E0230020D3F8302DCB
:100DD000D3F8381DD3F83C3DCDE90042CDE90213EC
:100DE0000E4A3B46124900F0B3F900200B4A114964
:100DF00000F0AEF914F002000BD0084A00200E49B2
:100E000000F0A6F9EFF3108372B6AD210B4800F0A5
:100E10005FF9002CF6DA014A0949F1E7FC550C0CA0
:100E2000A7210B0CC3210B0CDD210B0CF4210B0CA7
:100E30002F220B0C6C220B0C84220B0CBC220B0CF3
:100E4000AA220B0C0000000C80E60D0C08B54FF038
:100E5000E023D3F8283DEFF3108372B665210148F3
:100E600000F036F9D4220B0CCA6E012A08B508D05E
:100E7000022A0AD01AB9D422086F00F021F8002003
:100E800008BD0A6F034B1A60F9E70A6F11604A6FD9
:100E9000F8E700BF780C022000000000000000000E
:100EA00018DF88DFCD06CD767CD30CD3D982D9125A
:100EB0002C00050A0F14191E232800BFAFF3008071
:100EC00000B501B400F004F801BC00BDAFF3008030
:100ED00000B5042A60DB00F0030E61F3830E7A4B49
:100EE000D3E80EF0AFF30080AFF30080AFF30080E3
:100EF00011F8013B00F8013BA2F1010211F8013B9E
:100F000000F8013BA2F1010211F8013B00F8013B9E
:100F1000A2F101022DE9F01F282A07DBB1E8F81F32
:100F2000A0E8F81FA2F12802282AF7DADFF89CE1EE
:100F30004FEA920BDEE80BF051F8043B40F8043B1B
:100F400026E0B1E81800A0E8180021E0B1E8380078
:100F5000A0E838001CE0B1E87800A0E8780017E0CD
:100F6000B1E8F800A0E8F80012E0B1E8F801A0E864
:100F7000F8010DE0B1E8F803A0E8F80308E0B1E8F3
:100F8000F807A0E8F80703E0B1E8F80FA0E8F80FC9
:100F9000BDE8F01F02F00302002A08BF00BD11F8EF
:100FA000013B00F8013B013A08BF00BD11F8013BCD
:100FB00000F8013B013A08BF00BD11F8013B00F801
:100FC000013B00BDAFF30080AFF30080AFF30080C2
:100FD00011F8013B00F8013BA2F1010211F8013BBD
:100FE00000F8013BA2F1010211F8013B00F8013BBE
:100FF000A2F10102282A35DB2DE9F01FB1E8F81F24
:1010000020F8023B4FEA134364F31F434FEA1444B2
:1010100065F31F444FEA154566F31F454FEA164630
:1010200067F31F464FEA174768F31F474FEA184810
:1010300069F31F484FEA19496AF31F494FEA1A4AF0
:101040006BF31F4A4FEA1B4B6CF31F4BA0E8F80FE2
:101050004FEA1C4C20F802CBA2F12802282ACDDA54
:10106000BDE8F01F042A97DB51F8043B20F8023B4F
:101070004FEA134320F8023BA2F10402BAE711F849
:10108000013B00F8013BA2F1010211F8013B00F81D
:10109000013BA2F1010211F8013B00F8013BA2F172
:1010A0000102042AFFF678AF51F8043B00F8013B37
:1010B0004FEA132320F8023B4FEA134300F8013BA9
:1010C000A2F10402EDE70000A00E000CB00E000C2F
:1010D00008B506F0FFFC012000F000F8044608B552
:1010E00000F003F8204601F0FFFDF8B5064600F0D9
:1010F0003CF80C22C46B0027651E02FB0404002D83
:1011000000DAF8BDD4E90D23E16BC4E90E7713B121
:10111000012A03D19847013D0C3CF0E7022A02D195
:1011200030469847F7E7032AF5D108469847F2E793
:10113000064B07B51B780341DB0703D5019201AAD3
:1011400000F094FC03B05DF804FB00BF6C000220CB
:101150000EB403B503AA52F8041B0192FFF7E8FF8F
:1011600002B05DF804EB03B0704708B500F002F878
:10117000006808BD1FB5002001A901F013F900287F
:10118000ACBF0298002005B05DF804FB08B5FFF77E
:10119000F1FF08B1143008BD0048FCE77C0C0220C8
:1011A00070B504460D46236D20469B6A984700287B
:1011B000F9D0236D294620461B6ABDE870401847C8
:1011C0002DE9F84F058E0446B0F934300F462DB2A4
:1011D00090464FF001090135AB42D8BF0025638E20
:1011E0001BB2AB4208D0238E2DB2A26B00201BB2E3
:1011F000D7542586BDE8F88FB8F1000F2BD0EFF358
:10120000108A72B6638E1BB2AB421FD1E37803F033
:10121000FF0BEBB9236D0121204684F801905B6A36
:10122000984704F1100001F0DFF8236D0646594697
:101230005B6A204698471AF0010F00D162B6E37846
:1012400063B9002ECBDA6FF00300D3E70026F2E794
:101250006FF07F06EFE76FF00A00CBE76FF07F00DB
:10126000C8E72DE9F047836807460E4690465C695B
:1012700004F13C09484601F0B7F8051E0FDB0025D4
:10128000454504D2E3786BB10DB96FF07F05236D4E
:10129000204601219B699847484601F0EFF828460F
:1012A000BDE8F087B4F84630B4F8442019B212B261
:1012B0008A420ED0E26C01330135525C1BB2B4F9A4
:1012C00048109942D8BF0023A4F8463006F8012BF5
:1012D000D6E7002DDBDCBB68002B4BD0396811F062
:1012E00040014AD1EFF3108A72B6236D20469B6904
:1012F0009847B4F84420B4F8463012B21BB29A4270
:101300002ED1236D012120469B699847B4F84420D3
:10131000B4F8463012B21BB29A4204D01AF0010F50
:1013200000D162B6ACE7E3789BB9012304F1180061
:10133000A37001F059F81AF0010F00D162B600282D
:101340000ADA002DA3D1E378002B9ED16FF00305BC
:101350009DE76FF07F00EEE7E378002B90D0F0E799
:101360001AF0010F00D162B6236D012120469B695E
:10137000984785E76FF0500589E76FF00A0586E723
:101380002DE9F04183685E6906F10805284601F001
:101390002BF8041E1BDBF378002B30D1337801339C
:1013A00013F0FF072ED0012F27D1EFF3108872B66C
:1013B00033797BB9336D30461B689847041E09DAD0
:1013C00018F0010F00D162B6284601F057F8204608
:1013D000BDE8F081336D30469B689847041E336D3D
:1013E00003DA5B6830469847EAE79B69012130469B
:1013F000984718F0010F00D162B63770E4E76FF03C
:101400007F04E1E76FF01704DEE7F7B50E4600F161
:10141000540700F1640557F8044F8CB16368A26863
:1014200043F0180333401343A3604BB101A9206973
:1014300007F02EFB019B002B02DC206901F01EF857
:10144000AF42E8D103B0F0BD2DE9F84383680E4602
:1014500015465C69002C62D0002960D004F1200898
:10146000404600F0C1FF071E49DB002D51D004F1BA
:101470005402002352F8045F002D36D1163304F1D4
:10148000280944F8236004EB83034846736100F0A5
:10149000DFFF238EB4F934201BB201339A42D8BF48
:1014A0000023628E12B29A422CD1484604F13C09C4
:1014B00000F0E4FF484600F0CBFFB4F84420B4F855
:1014C0004630484612B21BB29A421EBF736803F000
:1014D00001031D4300F0D2FFE378BBB145F01805CE
:1014E00029462046FFF791FF06E00133042BC1D1C6
:1014F00000236FF00F077361404600F0BFFF3846CE
:10150000BDE8F883756805F00405CEE7002DF3D03B
:10151000E6E77369002BEFD01D607561ECE76FF0B3
:101520001207ECE72DE9F84F836880460F46164610
:101530005D693A4B1B6823B1EB78ABB16FF07F0468
:101540001EE000F023FF0028F6D105F1280A5046DE
:1015500000F04AFF041E13DBEB7803F0FF010BB32E
:10156000504600F08BFFE9E7EFF3108872B607EB07
:1015700006094F4507D118F0010F00D162B6344675
:101580002046BDE8F88F2B7917F8014B2BB10A2CB8
:1015900003D10D212846FFF703FE21462846FFF719
:1015A000FFFDE6E7D8F80030B146284683F0400852
:1015B0002B6DC8F380185B6A9847B9F1000F01D111
:1015C00034460EE02B7917F801BBCBB94246594699
:1015D0002846FFF7F5FD041E1DDAB14501D2A6EB42
:1015E00009042A8E6B8E12B21BB29A4204D02B6D64
:1015F000012128465B6A9847504600F03FFFBFE74D
:10160000BBF10A0FE2D142460D212846FFF7D8FD73
:10161000041EDBDAE1E709F1FF39CEE7780C02209E
:101620002DE9F04700F1280704460E46384600F041
:10163000DBFE051E17DBEFF3108972B6E37803F0CB
:10164000FF0563B3238E6FF07F05638619F0010FEA
:1016500000D162B6DFF87880002DD8F800902DDA3E
:10166000384600F00BFF2846BDE8F087236D0121C6
:10167000204684F801A05B6A9847404600F0B4FE1B
:10168000236D054600215B6A20469847002DDDDB6F
:10169000228E638E12B21BB29A42E7D1D6E74FF088
:1016A000010A04F11008F3E74FF47A7001F000F931
:1016B000D8F80030A3EB0903B34206D2236D2046CD
:1016C000DB6A98470028EFD0CAE76FF07305CAE7D6
:1016D0008C8C02202DE9F0410C46054601220021A8
:1016E00004F1280004F1100707F0B7F901220021E6
:1016F00004F13C0007F0B1F90122002104F10800D7
:1017000007F0ABF90022384604F11806114607F03D
:10171000A4F900223046114607F09FF9012200216A
:1017200004F1200007F099F90021384601F099F8FA
:101730000021304601F095F8234628464FF4DB722D
:101740000249BDE8F04100F055BB00BF0C560C0C3F
:1017500010B504460121FFF758FEA3783BB10023E2
:1017600004F11800A370BDE8104000F087BE10BD62
:1017700010B504460421FFF748FE63783BB100230F
:1017800004F110006370BDE8104000F077BE10BD9A
:1017900070B583680E4615465C69236D1B692BBBCB
:1017A00040F207339E4226D0B6F5427F09DAB6F5FD
:1017B0008A7F5FD040F215139E4272D06FF01800FE
:1017C00070BD3BD040F209339E42F7D1EFF3108059
:1017D00072B6228E638E12B21BB29A4242DA638EC6
:1017E000228E1BB212B29B1A013B16E0984710F1F1
:1017F000190FE5D1D4E7EFF3108072B6B4F84620A4
:10180000B4F8443012B21BB29A420DDCB4F8443042
:10181000B4F846201BB212B29B1A10F0010F00D18F
:1018200062B62B600020CBE7B4F84620B4F8441031
:1018300012B2B4F9483009B2521AEDE7EFF3108052
:1018400072B6628E238E12B21BB29A4203DC238ED2
:10185000628E1BB2DFE7628E218E12B2B4F9343091
:1018600009B2E9E7228E618E12B2B4F9343009B2BE
:10187000521AB8E7EFF3108672B635F0020303D1BF
:10188000B4F84430A4F84630013D012D04D8238E2D
:1018900020466386FFF76CFF16F0010F00D162B699
:1018A000C0E720464FF47A71BDE87040FFF7B8BE3C
:1018B00070B504460D46EFF3108672B681F0010351
:1018C000C37089B91821FFF7A0FD637823B104F133
:1018D0001000657000F0D2FDA3782BB1002304F155
:1018E0001800A37000F0CAFD16F0010F00D162B617
:1018F00070BD10B504460021103000F014FE002128
:1019000004F1180000F00FFE012104F1280000F09E
:101910000AFE012104F13C0000F005FE04F1200064
:101920000121BDE8104000F0FEBD70B5836805469A
:101930005C6904F10806304600F08AFD2378012B2B
:1019400006D9013B2370304600F098FD002070BDA1
:101950000021236D204621709B6998472B685B0608
:1019600004D44FF4C8712046FFF75AFEEFF31085F8
:1019700072B6236D2046DB68984723791BB9236D27
:1019800020465B68984715F0010F00D162B62046EB
:10199000FFF7DEFE2046FFF7ACFFD4E770B5002569
:1019A00004462E46228E638E12B21BB29A4211D189
:1019B000228E638E12B21BB29A4204D1236D002193
:1019C00020465B6A9847ADB2EDB12046BDE8704055
:1019D000FFF7CEBE236D20469B6A98470028E7D0CC
:1019E000638E2046A16B1BB2226DC95C126A9047C0
:1019F000638EB4F9342001331BB29A42638600DC53
:101A000066860135CEE770BDF7B5B0F844500446A0
:101A1000B0F9483000262DB20135AB42D8BF0025C1
:101A2000236D2046DB69984730B9B6B216B120461F
:101A3000FFF78EFE03B0F0BDB4F8467001A9236D28
:101A400020463FB25B699847AF42E9D0B4F84430D2
:101A50000136E26C1BB2D0542BB20135A4F84430ED
:101A6000B4F94830AB42D8BF0025D9E730B585B0CE
:101A70000C461546684600F019F82A682146684663
:101A800007F0FCF805B030BD0D2938B504460D4609
:101A900007D0284600F016F8031E03DBE368013385
:101AA000E36038BD0433F4D0FBE70000034B036070
:101AB000034B83600023C360704700BF891A000C8A
:101AC000B1A0000C38B50C4B04460C4D1B681BB183
:101AD000286858B9204638BD00F058FC0028F7D1D6
:101AE00028680028F6D003681B6801E003685B687B
:101AF00021469847EEE700BF780C022070000220D4
:101B0000F8B50E4600F1140500F12404EFF3108738
:101B100072B655F8042F42B15368916833400B43B5
:101B2000936013B1106900F0A9FC17F0010F00D108
:101B300062B6A542EAD1F8BD2DE9F04183680F46AF
:101B400090465C6904F10806304600F04DFC051E25
:101B50003ADBB8F1000F3AD004F11402002352F836
:101B6000041F39BB063344F8237004EB83037B6105
:101B7000EFF3108072B623682269013361689A42DC
:101B800098BF0023C91A23686768134418BF01214E
:101B9000DB1B8900B3FBF2F702FB17330BB141F0FB
:101BA000010110F0010F00D162B651B12046FFF7DC
:101BB000A7FF06E00133042BD1D100236FF00F05FE
:101BC0007B61304600F05AFC2846BDE8F0817B6915
:101BD000002BF6D0C3F80080C7F81480F1E72DE998
:101BE000F04183680F4616465D6905F108084046D6
:101BF00000F0FAFB041E0FDB00242046B44203D0A1
:101C00002A686B689A420AD1404600F037FC1CB142
:101C100004212846FFF774FF2046BDE8F0816A687A
:101C20006B69995C6A6898546B682A6901339342BE
:101C30006B6000D3686039550134DFE72DE9F0416E
:101C4000284E04460F46B04223D10368B3F5004F37
:101C50001FD14368B3F5004F1BD100254FF0010899
:101C6000D0E90420831813F8011CAA420BD010F904
:101C700005C0435DBCF1000F1FDA002108F0E0FA57
:101C800033699D4202D1B8F1000F02D00023736086
:101C90003360EFF3108272B62368216901339942F1
:101CA00098BF00236168994212D112F0010F00D150
:101CB00062B66FF00F00BDE8F08129B10BB998460C
:101CC000356001351946D0E7002BFAD07560F8E78A
:101CD000216860694754236012F0010F00D162B699
:101CE0000020E8E7780002202DE9F84300F108071A
:101CF000044689469046384600F076FB051E1CDBFC
:101D000045460026464506D019F806102046FFF73E
:101D100095FF002814DA6EB12269236861681344C4
:101D20005B1AB3FBF2F102FB11331BB10121204618
:101D3000FFF7E6FE384600F0A1FB2846BDE8F88331
:101D40000136DFE783685869FFF7CEBF2DE9F04120
:101D500083680E4617465D6905F10808404600F0A5
:101D600043FB041E10DB40F207339E420FD129696A
:101D70002B686A680B449B1AB3FBF1F201FB123328
:101D80003B60404600F07AFB2046BDE8F0816FF0F2
:101D90001804F6E7034B4FF4DB720349034800F0E5
:101DA00029B800BF7800022040560C0CEB220B0C27
:101DB00038B50C4C0D46C9B22046FFF73FFF00284E
:101DC0000EDB22692368616813445B1AB3FBF2F1EE
:101DD00002FB11331BB101212046FFF791FE28467B
:101DE00038BD00BF780002200148FFF77DBF00BF6B
:101DF000780002202DE9F34107460E4690461D4625
:101E000000F01CF8041E12DB01AA4146384600F01F
:101E10007BF8041E09DB019B0024DA8922F00F0203
:101E200042F00102C3E90465DA8100F029F8204696
:101E300002B0BDE8F08100F05BB8000038B50F4C8F
:101E400000F044FF0546A368984204D1A38900200E
:101E50000133A38138BD204600F002FB002807DAD9
:101E6000FFF794F900680428F5D08C28F3D040429D
:101E70000028EFD10123A560A381EBE7A000022099
:101E800008B500F023FF0A488389012B0CD10023F9
:101E900083814FF0FF33836000F038FB002805DAC0
:101EA000BDE80840FFF772B9013B838108BD00BF60
:101EB000A000022010B503460446184613F8012B73
:101EC0002AB9001B1C3006F09BF918B910BD2F2A47
:101ED000F3D1F6E700F11803013C14F8012F12B911
:101EE00000221A70F2E72F2AFAD003F8012BF4E748
:101EF00008B50348FFF7DEFF024B186008BD00BFBE
:101F0000C6820B0C808C022000232DE9F04116467E
:101F10001360027888B0002A45D08DF81C30CDE9D6
:101F2000010301A8CDE90333CDE9053300F04AF8F8
:101F3000002835DA019FDDE90354384600F036F811
:101F4000037880463846D3B1FFF7B4FF48B96FF045
:101F50000B04069808B106F03BF9204608B0BDE82E
:101F6000F0813DB16B68C0E90043686047460446B4
:101F70000025E2E7A368C0E90043A060F6E7FFF7A9
:101F800099FF0028E3D035B16B68C0E90043686071
:101F900000243060DDE7A368C0E90043A060F7E7F4
:101FA0006FF01004D5E76FF01504D6E7027803460A
:101FB00001300AB12F2AF9D11846013302782F2AAD
:101FC000FAD07047F8B5036804461B782F2B11D060
:101FD00005462E4800F06CF82D4A55F8143B0028B1
:101FE00018BF02462B49284606F0FEFD6369002B08
:101FF00046D02360284B196823681A782F2A42D1CB
:1020000000252E4641B90A466FF001002261C4E95D
:102010000031C4E90265F8BD53B301F117005F1E3A
:1020200010F801CF17F8012FBCF1000F06D182B1D3
:102030002F2A0ED04A680E461146E3E722B12F2A16
:1020400002D09445F6D3EBD900216FF001000A4687
:10205000DCE71846FFF7AAFF0346007858B1CA89A3
:1020600002F00F02032A08D08A680D460021E2E739
:102070001A461946C8E71A46C8E71A460020C5E7B7
:102080006FF00B00C7E76FF01500C4E70B2F0B0CC8
:10209000BE7E0B0C44590B0C808C022005F012BC48
:1020A000024A136801331360704700BF8C8C022012
:1020B00038B5044618B300F031F9124B1B689D681F
:1020C0008DB12146284600F011FF041E0CDB2B6C5D
:1020D0003D2153F8240008F0FBF868B1441C00F0DF
:1020E0002DF9204638BD2C4600F028F96442FFF750
:1020F0004DF804600024F4E76FF01504F4E76FF086
:102100001504F3E77C8D02203F4C01233F4DA822AC
:1021100004F18C062B7083B50021204608F090F85E
:10212000032318223A49237730463A4B3A4FC4E901
:1021300005330623A38608F0E8F8384920463E60B8
:1021400006F01EFC364B374E1C6002232B7000F04D
:102150000AFA01A9684605F0D5FBDDE9000106F0A1
:1021600029F8042333603368012B49DD306880008F
:1021700006F046F82C4B186033680460224894F847
:10218000341000F05FFFA3681F489B6A9F6005F052
:102190006BFF1D4800F0B6FD1B4800F081FFA368EF
:1021A00005221A720022214B1A6003232B7000F0C3
:1021B000B5F809F057FC1E4B0BB100F0D1FF1D4BD9
:1021C0000BB1FFF76BFF1C4B0BB101F0A3FD02F04D
:1021D00023F905F0F3FD08F0B3FC04230A482B7043
:1021E000A5F034FA084800F08BFF05232B7000F0AF
:1021F00025F806232B7000F0A1F805F081FBFCE721
:1022000033685B00AEE700BF988C0220408D02204F
:1022100060560C0C0921000C908C02207C8D022051
:10222000788D0220448D0220488D02204C8D0220A2
:102230006131000C9D20000C153D000C13B50024ED
:1022400001220949094800F069FE00F0EFFD00F0A5
:10225000F9FD074B40F67A4264210094054800F0EE
:1022600068FB204602B010BDBE7E0B0C0B2F0B0C82
:102270008144000CF7220B0C982870B505460C46DB
:1022800013D8EFF3108672B619B9FEF7E7FC2246B1
:10229000074C084B43F8354003EBC5035A6016F072
:1022A000010F00D162B6002070BD6FF01500FBE792
:1022B000F522000C08900220982808B50CD8094A8D
:1022C00052F830305BB102EBC00252689847064BBF
:1022D0001A68064B1A6008BD0022054BF6E71A463D
:1022E000FBE700BF089002207C8D0220788D022041
:1022F000F522000C08B50346EFF3108272B60449CC
:102300000320044AFEF724FF36210348FEF7E0FECF
:1023100000230B0CAC560C0C13230B0C054B1B6849
:102320002BB1054A126812B9DA8E0132DA86002022
:10233000704700BF7C8D0220780C0220104B10B536
:102340001A6892B10F4B1B687BB9EFF3108472B619
:10235000B2F93630002B0ADC0023D3860A4B1B6807
:102360005BB914F0010F00D162B6002010BD013B33
:102370001BB2D386002BF4D1EEE705F035FDF0E774
:102380007C8D0220780C0220708D0220044B1B688B
:1023900023B11868B0FA80F04009704701207047F7
:1023A0007C8D022038B50F4B0C461D6870B100F0D3
:1023B000FDFEA0B1AB8E03F00303022B07D0AA6889
:1023C00083689A4203D06FF00C0007E02846C36C84
:1023D0002360036D6360436D0020A36038BD6FF020
:1023E0000100FBE77C8D0220184B70B504461D6888
:1023F000EFF3108672B628B303881BB2002B038854
:1024000003F1FF331BB2038009DD002400F0C8F99B
:10241000AC6516F0010F00D162B6204670BDA8650C
:10242000FFF77CFF204600F0C3F900230521284672
:102430002B8705F04DFCB5F9384004B16442FFF735
:102440007DFFE6E76FF01504E3E700BF7C8D022017
:1024500010B504462046FFF7C7FF031DFAD010BD94
:1024600010B5FFF7C1FF041E06DA6442FEF78EFEC8
:1024700004604FF0FF3010BD0020FCE770B505464A
:1024800000283ED0EFF3108672B6038847F6FF723D
:102490001BB2934206D116F0010F00D162B66FF065
:1024A0008A0070BD00F08EF92B8801331BB22B809F
:1024B000FFF734FF2B881BB2002B20DC124B1C686B
:1024C0007CB1A36DAB4218D12946204600F040F9FB
:1024D00004F13C0000F024FC00232046A36505F035
:1024E00021FD2946204600F091F9FFF727FF16F05D
:1024F000010F00D162B60020D3E72468E0E7002492
:10250000EFE76FF01500CCE7688D022010B5FFF7FC
:10251000B5FF041E05DA6442FEF738FE04604FF092
:10252000FF34204610BD70B505460C46FFF7F6FE99
:10253000EFF3108672B62B881A040AD42B881B047A
:102540000FD516F0010F00D162B6FFF7F7FE00209D
:1025500070BD002CF2DD013C2846FFF78FFF24B24E
:10256000E9E72C80EDE700F0CFB80000CB6803F17D
:1025700030021B6B1BB18B4212D14B6813600023DE
:10258000021DC1E90133CB600B8243681BB18B4252
:1025900009D10B681360054B1A6819600A6070470F
:1025A0001A1D5B68E6E71A461B68EFE7848D022078
:1025B00008B503460846B3F91020002A04DC194682
:1025C000FFF7D4FF012008BD0020FCE708B50B464B
:1025D00001461846FFF7CAFF002008BD10B5C068C5
:1025E000117C90F82E3099420ED9047CA1420DD96D
:1025F000A34206D2437F0F2B9FBFC11801338C77B4
:102600004377117C00F018FE002010BD437F0F2B94
:102610009FBFC218013391774377F5E70346084619
:1026200070B51546B3F91020DC68002A02DC1946A3
:10263000FFF79CFF227C94F82E108A4204D0637F1F
:1026400023B9204600F03AFE002070BD297C8A4262
:1026500018D804F11E060020012225189342A97FF4
:1026600009DC013B20461EBFE218927FAA77637700
:1026700000F0E2FDE8E716F8015F8D4288BF1046E2
:102680000132EAE704F11D00002210F8015F8D42DB
:1026900007D1013B1FBFE1181219897F917763773A
:1026A000D2E701329342F0DCCEE70000054B10B5D3
:1026B0001B68C4689C4203D1FFF7B0FF012010BD26
:1026C0000020FCE77C8D0220064B10B41B68C46818
:1026D0009C4203D05DF8044BFFF7A0BF00205DF8DB
:1026E000044B70477C8D0220F8B504460D46164613
:1026F0004068002300B103B1F8BD076832462146A7
:10270000A84703463846F5E7074A0021074B1A60F9
:1027100002F11403013143F8143C14331F29F9D199
:102720000023C2F86C327047888D0220848D02200D
:1027300010B5EFF3108472B600220449FFF7D4FFFE
:1027400014F0010F00D162B610BD00BFCD25000C02
:10275000036830B5DBB18B78DB0718D44A681346C1
:10276000B3B90E4C236893B11D681A6000224B6008
:102770001A822560C3E90210026B5A600363B3F941
:10278000102047F6FF718A421CBF01321A8230BD09
:10279000DC68A042F3D01B68E2E700BF848D022012
:1027A000024B01461868FFF7D3BF00BF7C8D0220A3
:1027B000024B03491A68FFF797BF00BF7C8D0220C8
:1027C000DD25000C0C4B002210B511461C68436837
:1027D00033B9012A02BF0B8A03F1FF330B8205E0F4
:1027E000D968A14203D11A8A013A1A8210BD19464A
:1027F00001321B68ECE700BF7C8D022002460846D0
:102800000149FFF771BF00BF1D26000C38B5044613
:102810000D4690B10A4B1B681BB1BDE83840FFF76D
:10282000EDBF024607492846FFF75EFF22460649EC
:102830002846BDE83840FFF757BF02460349F7E78F
:10284000780C0220C926000CAD26000CB125000C26
:1028500010B50446216B01B910BD8868FFF786FEEC
:10286000F8E7012908B50AD002290DD079B9827894
:1028700042F001028270FFF75BFF002008BD827802
:1028800022F001028270F8E76FF08500F6E76FF042
:102890001500F3E710B5FFF7E4FF041E05DA644204
:1028A000FEF774FC04604FF0FF34204610BD0000BA
:1028B00007B568B1084A0021B0FBF2F302FB130030
:1028C00000934FF47A7358430190684600F02CFF50
:1028D00003B05DF804FB00BF40420F002DE9FF414B
:1028E0000546A820884616461F4605F089FC044682
:1028F000E0B10023A0F834802946324603930C9BB4
:1029000002930B9B01930A9B00933B4600F044F813
:10291000051E06DA204605F05BFC284604B0BDE83B
:10292000F0812046E56800F091F9F6E76FF00B05BD
:10293000F3E71FB5069C00920A46CDE90134002357
:102940001946FFF7CBFF04B010BD13B5049C0094EB
:10295000FFF7EFFF041E05DA6442FEF717FC046080
:102960004FF0FF34204602B010BD1FB5079C029403
:10297000069CCDE9003413460A460221FFF7AEFF5C
:1029800004B010BD13B5049CCDE9003413460022F9
:10299000FFF7EBFF02B010BD2DE9F34790F834606C
:1029A00088460546914631461F46DDF828A000F0CE
:1029B00049FB041E40DB0D9906F00306A86800F0F1
:1029C0004DFA041E11DB284600F0B6FB041E0CDB9A
:1029D00087B152463946284605F0CEFA041E05DB7B
:1029E000284600F08FF9041E13DA57B1284600F08C
:1029F0005DFB21E032465146284605F0A1F9041E50
:102A0000EEDA2B6D002BF1D03146284605F012FA94
:102A1000ECE70B9B49460A4A2846009600F09AF8D4
:102A2000041EE2DB0C9A4146284600F0A3F8041E7F
:102A3000DBDB284600F034FB204602B0BDE8F0871F
:102A4000792C000C2DE9F74F04460E46019298466A
:102A5000EFF3108972B6DFF8F8A03A4FDAF80050B9
:102A600000203B680135384A116888420EDB106847
:102A7000C00005F0C5FB344A0546002846D119F0D0
:102A8000010F00D162B66FF00B0039E0012D116823
:102A9000B8BF01250139294053F821B0BBF1000F1F
:102AA00031D143F82140E560CAF8005019F0010F18
:102AB00000D162B6019BF6B29DF830205946032042
:102AC0002674667484F82E60C4E90538A38E62F318
:102AD000010304F15C0223F06003A38600F014FC00
:102AE000204684F81CB005F0BFFAFFF717FC174921
:102AF000204605F045FF04232377FFF71FFC5846C7
:102B000003B0BDE8F08F01350130ADE711684FF03B
:102B1000000C0D4B490011601A68386802EBD27244
:102B2000BCEB620F03DB05F053FB3D6096E750F80A
:102B30002C000CF1010C1A68C168013A0A4045F8F2
:102B40002200E9E7488D0220448D0220508D0220AA
:102B50004C8D022010B49DF8044001945DF8044BA4
:102B6000FFF770BF13B501240094FFF76BFF02B0AD
:102B700010BD0000344B2DE9F74F002914BF8846E3
:102B80009846074600241546414618228C3007F027
:102B9000D8FB404687F8A44007F0CBFB461C4DBB52
:102BA0002C460234384606EB840105F097F90646B8
:102BB0004FEA8409002844D000EB090AA9F108096A
:102BC000B346043DC0F800A0404607F0B2FB0446FF
:102BD000B14441460134504607F08FFB5444CB4585
:102BE0001BD100204AF8040CBB689B6A9E6003B0AE
:102BF000BDE8F08F40F2011955F824000028D0D02C
:102C0000013607F096FBFB6C06449E4216D2013457
:102C10004C45F1D16FF00600E9E74BF8044F55F849
:102C2000041F0846019107F084FB80460199204665
:102C300008F1010807F061FB4444D0E76FF05A0047
:102C4000D5E76FF00B00D2E7BF560C0C38B5044641
:102C5000EFF3108572B6037F042B01D0A4F018FDAA
:102C60002046A4F0F3FC204605F05CF915F0010FB6
:102C700000D162B638BD000038B5134B1C68A38E76
:102C800003F00303022B02D0204600F041FEA368AC
:102C9000012040F201119B6A9A6852F820304BB92A
:102CA000A38EA56903F00303022B08D11146A847A0
:102CB000FEF714FA01308842EFD10120F8E701460F
:102CC000284605F0BFFEF8E77C8D0220054B18680A
:102CD00030B1037F032B01D1C06870476FF0020051
:102CE000704700BF7C8D02200446002208B5E4B284
:102CF000034B2146186800F033FE204605F046F8E5
:102D00007C8D022010B51821044605F0E7F820B1AB
:102D1000A3689B6A0360002010BD6FF00B00FBE707
:102D200038B50446EFF3108572B6F8B14368EBB1DD
:102D3000114B00201B68E3B1A34210D123681BB1E3
:102D40009A68A1680A449A6060B10B4905F0FDFDDC
:102D50000020606015F0010F00D162B638BD184642
:102D60001B68E8E7044805F0E6FDF1E76FF01500A1
:102D7000F0E71B68FFDE00BFD0940220F8B5002208
:102D80000B461146586807F0C0F80546EFF310846B
:102D900072B60026A4B200F108073846FFF758FBC8
:102DA000284605F0C8FD03460028F6D00269002A2F
:102DB000F3D040691E6114F0010F00D162B6904754
:102DC000EFF3108472B6A4B2E7E700002DE9F041FA
:102DD0008CB004460E4617460DF11008114A20210A
:102DE0001D46404605F00DFFCDF808804FF0000865
:102DF000CDF80C80FFF792FA02AB20463A463146F6
:102E00000093094BFFF7BEFD041E07DB2C6144460F
:102E1000FFF794FA20460CB0BDE8F081FFF78EFA78
:102E2000F8E700BF2B230B0C7D2D000C034B40F665
:102E3000B832F9210248FFF7C9BF00BFC400022021
:102E400030230B0C034B4FF4206232210248FFF772
:102E5000BDBF00BFB000022037230B0C2DE9F041AD
:102E6000214B0C4606461D68FFF758FA7CBBAB6841
:102E70001C6C64BBFFF762FA2046BDE8F0810135A7
:102E800054F82570002FFAD15DB34FEA850808F198
:102E9000040005F0A5F90746B0B10023444440F80A
:102EA0002530013D54F8040D07F043FA013005F0D8
:102EB00097F947F8250078B907EB850555F8040F11
:102EC00038B9384605F084F96FF00B040AE00025A4
:102ED000D6E705F07DF9F1E7216807F00EFA013D2C
:102EE000E0D200243764C5E77C8D022070B5046C05
:102EF00084B1002054F8203063B14A1E013B12F81F
:102F0000016F13F8015FAE42F9D00EB93D2D03D029
:102F10000130EFE76FF0010070BD00002DE9F843CC
:102F20000F4614460546002860D009B10B782BB92E
:102F3000B4B12846BDE8F84300F05EB8FFF7EEF9FB
:102F40002B4B1B68D3F80880D8F8403073B1294662
:102F50004046FFF7CBFF011E08DB24B9FFF7EEF96F
:102F60000020BDE8F883404600F0CEFD284607F07B
:102F7000E0F90446384607F0DCF92044023005F059
:102F80002FF9064638B3D8F84090B9F1000F2BD18D
:102F9000082005F025F9D8B14C4640F824600023FC
:102FA00000EB84042A46134963603B46C8F840009E
:102FB000304605F002FED1E7013459F82430002BE9
:102FC000FAD1A11C4846890005F012F90028E4D185
:102FD000304605F0FDF80C24FFF7B0F9FEF7D6F8FF
:102FE00004604FF0FF30BCE70024E6E71624F5E765
:102FF0007C8D02203E230B0C38B5114B04461B6818
:103000009D6828B103781BB13D2107F061F930B10B
:10301000FEF7BCF8162303604FF0FF3038BDFFF712
:103020007DF945B121462846FFF760FF011E02DB0E
:10303000284600F069FDFFF781F90020EEE700BFA8
:103040007C8D022070B506464FF47D7005F0D8F8EF
:10305000044610B300F0C7FC051E04DA204605F054
:10306000B7F8284670BD04F14400B46008F02BFDA9
:10307000204606F075FE0122002104F1180005F03B
:10308000ECFC0C34002200252046114605F0E5FC3E
:1030900000212046FFF7E5FBE3E76FF00B05E0E7D3
:1030A000D0E902321A6001225A72704738B584683A
:1030B000054634B1637A012B04D9013B63720023C6
:1030C000AB6038BD204600F09FFC204600F0E4F9DC
:1030D000204600F053F804F1440008F0F8FC2046C4
:1030E00006F05DFE204600F0FBFCA37A23B1237AB4
:1030F00043F008032372E2E7204605F069F8DEE7B3
:1031000038B5032105460B4809F091F8041E0BD190
:10311000012108F0D1FD2046022108F0CDFD28460E
:10312000BDE8384000F00EBD01DD08F014FE6FF080
:10313000160038BD8F210B0C084B10B51B680446D8
:10314000816898684431443008F05BFD002804DB56
:103150002046BDE8104000F0F5BC10BD7C8D02207B
:103160000023044A044942F833100133992BFAD161
:10317000FDF79CBD08900220F522000C38B50446EE
:10318000256A2DB904F11800BDE8384000F0A0B858
:10319000284650F8143B236200F09AF805F10C0021
:1031A00000F096F8284605F013F8E9E70346EFF338
:1031B000108172B60B4A106860B1002B0FDB0A4A0F
:1031C0001268013A1A4050F8220018B1C2689A42B7
:1031D00018BF002011F0010F00D162B67047002027
:1031E000F8E700BF488D0220448D022038B5044620
:1031F000E0B1C2687AB1EFF3108072B60C4B0025D3
:103200001B68013B13400B4A126842F8235010F030
:10321000010F00D162B6236D13B1204604F00AFEFF
:103220002046FFF743FF204604F0D2FF002038BDC0
:10323000448D0220488D0220F8B54B1E0446FE2B1B
:1032400034D8EFF3108772B6027FCDB2022A0ED0C7
:10325000032A18D103681B7C994225DC294604F017
:10326000FBFD17F0010F00D162B60020F8BD114B35
:103270001B681B7C9942F1DC00F0BCFC20462574E5
:1032800000F094FCEDE70C4B53F8326003EBC20303
:103290001B79DB0708D5314605F07DFB314620461A
:1032A000257400F0BBFCDCE72574DAE76FF015004D
:1032B000DCE700BF7C8D02206C560C0C38B5044650
:1032C0000D46FFF7B9FF10B984F82E50607738BD6E
:1032D00008B540B103881B0401D401230380FFF724
:1032E00027FA002008BD6FF01500FBE710B5FFF7C7
:1032F000EFFF041E05DA6442FDF748FF04604FF05B
:10330000FF34204610BD0000F8B51746154B0646A1
:103310000C461D68FFF702F80FB1EB6D3B609CB1E6
:10332000EFF3108272B6022E12D0032E15D0012EAA
:1033300015D1EB6D21680B430024EB6512F0010FF2
:1033400000D162B600F010F8FEF7F8FF2046F8BD95
:103350002168EB6D23EA0103EEE72368ECE76FF0E9
:103360001504EBE77C8D0220174B37B51D68FEF77F
:10337000D5FFEC6D284600F0CDFDE44304400194F8
:1033800024B9FEF7DBFF204603B030BD01A800F0F2
:103390005BF8431C044610D0014601A805F09BFBD6
:1033A0002146284600F012F8044630B1011D284697
:1033B00000F086F8204600F027F8019B002BE5D1AD
:1033C000FEF7BCFF0120DFE77C8D022038B5836863
:1033D000EFF3108572B600205C6B3CB122798A4213
:1033E0000AD103F1340150B105F0AFFA15F0010F25
:1033F00000D162B6204638BD20462468EDE7084675
:1034000005F099FAF2E7000010B5037B53B9EFF32A
:10341000108472B60A4905F05AFA14F0010F00D16F
:1034200062B610BD022B04D1EFF3108472B60549C9
:10343000F1E7012BF5D1BDE8104004F0C9BE00BF93
:10344000E0940220D894022038B505460124214694
:10345000284605F050FB20B90134202CF7D14FF05D
:10346000FF34204638BD38B5044600F164052846CF
:1034700005F061FA50B904F16C05284605F05BFAD5
:1034800038B94FF0FF32C4E9172038BD00F018FEFC
:10349000EDE700F015FEF0E738B5044600F12C0525
:1034A000284605F048FA28B93434204605F043FA96
:1034B00018B938BD00F08CFCF2E7FFF7A5FFF4E780
:1034C0002DE9F0410D4609780446F1B15C3005F074
:1034D00012FB0128074664D1EFF3108672B6237FF2
:1034E000062B14D1297804F1600005F004FB70B1BB
:1034F0002B68204663676B68A3670023236604F08C
:1035000011FD16F0010F00D162B600269EE016F004
:10351000010F00D162B6A4682978EFF3108272B669
:10352000636B13B11879884209D112F0010F00D1F1
:1035300062B633B12A685A606A689A60E5E71B6828
:10354000EFE7474B1B68C3B1464805F0F4F920B9D3
:10355000454805F0F0F90028D7D02B6843606B6828
:103560008360EFF3108572B604F1340105F0AFF912
:1035700015F0010F00D162B6C7E7EFF3108672B6FF
:10358000384805F0D8F916F0010F00D162B60028CE
:10359000E3D1102004F024FE0028B6D001230373E9
:1035A000DBE7FEF7BBFE2978A06800F051FD064678
:1035B00020B3436813B300F05DFD002849D0736861
:1035C0004360B2688260F3689B0604D429780123C3
:1035D0008B40134383602B68C3606B680361EFF318
:1035E000108672B604F1640105F071F91F49204696
:1035F00004F07CFD16F0010F00D162B60026FEF744
:103600009DFEEFF3108872B6237F062B08D12B683E
:10361000204663676B68A3670023236604F082FC7F
:1036200018F0010F00D162B6002F15D1237F052BB2
:1036300003D10421204600F050FB237F072B05D146
:103640002B78082B02D1204600F022FB3046BDE843
:10365000F0816FF00B06D2E7F8DA6FF01506F5E7A8
:10366000780C0220E0940220D89402207136000CDD
:103670002DE9F74F0446FDF789FD0368B4F938805A
:1036800004F1640A04F16C070093EFF3108972B639
:10369000A28E12F4007301930CD019F0010F00D127
:1036A00062B6FDF773FD009B0360A4F8388003B099
:1036B000BDE8F08F504605F03EF905460028ECD0F5
:1036C000A28E394642F40072A28605F000F9D4F8C1
:1036D0005CB0AE684BEA0606E66519F0010F00D152
:1036E00062B66B6805F10C01019A287B9847EFF3ED
:1036F000108972B6A38E2846E16D23F40073A38669
:1037000081EA0B0371400B40394683EA0B03E36502
:1037100005F0FBF819F0010F00D162B6FFF724FEA7
:10372000284600F0CDFCB0E72DE9F7430E460546EC
:10373000002836D042681C4B9A4232D8EFF31087EB
:1037400072B6DFF868906846D9F8008005F0CFF9C6
:103750002A460021684600F003FC10F10B0F0446D6
:1037600008D117F0010F00D162B60024204603B043
:10377000BDE8F08386B101A9284605F029F9D9F8FA
:10378000003001983146A3EB080290428ABFC01A6C
:103790000020404405F00EF917F0010F00D162B689
:1037A000E4E76FF01504E1E7FFC99A3B8C8C022037
:1037B0007FB51D46CB07144625D5EFF3108672B6AC
:1037C00002A900F02FF9002808DA16F0010F00D145
:1037D00062B64FF0FF34204604B070BD6A4602A9BD
:1037E000204605F011F929466846FFF79DFF04467B
:1037F00016F0010F00D162B6002CECDA6442FDF73E
:10380000C5FC0460E5E729461046FFF78DFF044636
:10381000F2E770470F4B70B51D68AC68FEF77EFD90
:10382000E37A5A0706D4284600F018FABDE870403B
:10383000FEF784BD626900230AB11360636104F17D
:103840000C06E372A3891B04EDD53046FEF716FE85
:10385000F8E700BF7C8D022008B5064B1B689B8EE5
:1038600003F00303012B02D1002005F029F8012009
:10387000FDF734FC7C8D022008B580683C3005F0F3
:103880003AF90028D4BF0020012008BD0023094ACE
:1038900010B512F8334002EBC301844204D14878DA
:1038A000C04300F0010010BD01330B2BF1D101200A
:1038B000F9E700BFC8560C0C38B580684AB1002340
:1038C000124A12F8335002EBC304A9420DD16468C6
:1038D0007CB9EFF3108472B63C3005F0FCF814F0BC
:1038E000010F00D162B600240DE001330B2BE8D1AB
:1038F000EFE7EFF3108572B63C3005F0E0F815F015
:10390000010F00D162B6204638BD00BFC8560C0C6E
:103910002DE9F04386680024104D4FF002093C3633
:10392000A04685B0304605F0E2F86B6873B12F7899
:1039300001A90022CDF80C903846CDE901380123C9
:1039400000F054FA3946304605F0B9F8013408352C
:103950000B2CEAD1002005B0BDE8F083C8560C0C52
:1039600070B5838E0E460446190517D43AB980689F
:1039700028B1437A012B02D1543006F0E2F82046F8
:1039800000F025F8A56855B92046FFF78FFB2046C3
:10399000FFF769FDA38E43F40063A38670BDA38E79
:1039A00003F00303012B03D06B690BB136021E60D9
:1039B0006B7A012BE8D1002305F10C066B61EB72E9
:1039C000AB891B04E0D53046FEF758FDF8E710B58B
:1039D000044600F0CDF8204600F020F82046BDE86F
:1039E000104000F060B938B505464C2004F008FCE2
:1039F000044630B10122002105F02FF80020AC620E
:103A000038BD6FF00B00FBE710B5846A2046FFF766
:103A10005FFC2046BDE8104004F0DABB3C30FFF705
:103A20007FB90000431E012B37B50D460CD8084660
:103A300000F040F80446002C2FDA6442FDF7A6FBA4
:103A400004604FF0FF3428E0002829D1684600F0D8
:103A500031F804460028EED1EFF3108172B6124A15
:103A6000009B1068526803440093019B1344019328
:103A700011F0010F00D162B60C4A019B934208DDA0
:103A80000B48009A93FBF0F10A4400FB11330092BB
:103A90000193009B2B60019B6B60204603B030BDFF
:103AA0006FF01504C9E700BF848C0220FFC99A3B60
:103AB00000CA9A3B084B4FF47A7210B50446196855
:103AC0000A200023A1FB00010CF016FE034B20602E
:103AD00000205343636010BD8C8C022040420F00D5
:103AE00038B5036C04466BB90023236438BD04F079
:103AF0006FFB236C585904350028F8D1184604F0A0
:103B000067FBF1E70025F4E770B5036C05460C464A
:103B100053F8210004F05CFBA1002A6C0B1DD05867
:103B200042F824000134286CC658002EF4D1012C30
:103B300003D104F04DFB2E6470BD083104F058FB36
:103B40000646F8E700230246012110B50446184650
:103B500008F0CEFF002322460621012008F0C8FF0E
:103B6000002322460621022008F0C2FF002010BDDB
:103B700038B500250446FEF7D1FBE36F1BB9BDE85D
:103B80003840FEF7DBBBEFF3108372B6E06F0268DC
:103B9000E267056013F0010F00D162B6037C0430C8
:103BA00043F00203037300F030FBE6E70F4B10B560
:103BB0001B680446B3F93620002A0ADD1A7C037C10
:103BC0009A4206D20A4900F029F8012300202377FF
:103BD0000AE00649204600F021F802230028F5D02B
:103BE000032222772268137710BD00BF7C8D02204C
:103BF000708D022038B5436804465BB90368032220
:103C000001251A772046044904F0C5FE0023284602
:103C1000237738BD0025F5E77C8D022010B50B68B1
:103C2000027C5BB11C7C944206D25A68C0E9003227
:103C30008AB95860086007E01B68F2E74A680360C9
:103C400022B94360C1E90000012010BD426010604C
:103C500048600020F9E710605860FAE738B504467C
:103C6000EFF3108572B6037F043B032B0CD800F0F2
:103C7000EDFA042307212046238700F0D3FA15F03C
:103C8000010F00D162B638BD072104F021F8F6E734
:103C900010B5EFF3108472B604F044F914F0010F7C
:103CA00000D162B610BD70B50446EFF3108672B64F
:103CB000037F052B09D1856D2946FEF79FFD2B88D3
:103CC00001331BB22B800023A3652046FEF7C0FD05
:103CD00016F0010F00D162B670BDF8B504460D466E
:103CE000EFF3108772B6037F052B0DD1866D314639
:103CF000FEF784FD3388204601331BB23380002356
:103D00002587A36504F00EF917F0010F00D162B604
:103D1000F8BD0000F8B50024284B294E6020C3E907
:103D20000044284BC3E90044274BC3E90044274B18
:103D3000C6E90044C3E9004404F052FA054648B11C
:103D400000F160072C7528461835314604F0BFFD98
:103D5000AF42F7D1602004F043FA044658B100F1B5
:103D600060050227174E277520461834314604F0A7
:103D7000AEFDAC42F7D1402004F032FA044658B10F
:103D800000F140050027104E2773204610343146BD
:103D900004F09DFDA542F7D1402004F021FA04462D
:103DA00058B100F140050227084E27732046103411
:103DB000314604F08CFDAC42F7D1F8BDF8940220F6
:103DC000F0940220E8940220E0940220D89402208B
:103DD00010B5EFF3108472B6034904F078FD14F0C7
:103DE000010F00D162B610BDF89402202DE9F84F02
:103DF0001546464A1F280746D2F800900E46D9F8C5
:103E0000088003D96FF01500BDE8F88FD9B939469D
:103E1000404600F01DF90446FDB996B13568012D04
:103E200032D12A4639464846FFF746FD05468DBB46
:103E30003CB1204608F12C0104F067FD2046FFF755
:103E4000C7FF0020E0E7002BE1D10B68012BDED09B
:103E5000FFF71CFD0028DAD1D4E739464846FFF7C2
:103E60000BFD30B100230122C5E900230223AB6022
:103E7000D3E72CB163682B60A3686B60E368F6E757
:103E8000C5E90044AC60C8E7002239464846FFF760
:103E900013FDCCE79CB9EFF3108972B61C4804F00F
:103EA0004AFD044619F0010F00D162B6DFF86090B8
:103EB0005CB108F12C012046277404F008FD656010
:103EC0007368A360B368E360BBE7502004F088F92F
:103ED000044678B1EFF3108A72B600F1500B204619
:103EE0001434494604F0F3FC5C45F8D11AF0010F94
:103EF00000D162B6EFF3108A72B6484604F01BFD9B
:103F000004461AF0010F00D162B6D1E77C8D022081
:103F1000F894022037B5002283680192EFF31085F0
:103F200072B65C6B34B915F0010F00D162B601981E
:103F300003B030BD217901A804F0C1FD2468F1E788
:103F4000027F062A0AD140F2FF22A0F874207422D0
:103F500080F876200022826703F0E4BF70470000FB
:103F6000364B2DE9F74306460D4691461C68EFF3A4
:103F7000108772B6D0F800802046FFF7CBFF08EA22
:103F800000000190B0B101A8FFF75EFA014620469B
:103F9000FFF71CFA1DB143682B6083686B600679DC
:103FA000FFF732FA17F0010F00D162B6304603B0C6
:103FB000BDE8F08333682366B9F1000F32D0D9F839
:103FC000040004F13C081E4A0023C117D9F800E0A0
:103FD0008018DFF878C01B4A41F10001EEFB0C01AC
:103FE0000CF08AFB23460146174A404600F088F849
:103FF0002046062103F06CFE4046FEF791FE94F841
:10400000741000231F29236611D8304604F073FD75
:1040100080B194F87460002DC4D0636F2B60A36FDF
:104020006B60BFE70621204603F052FEE7E76FF022
:104030000A06F0E76FF00306EDE700BF7C8D022073
:104040007F96980080969800413F000C00CA9A3BEA
:1040500038B50D46044640B1FEF760F9E46A14B184
:10406000237CAB4203D1FEF769F9204638BD2468B2
:10407000F5E700000F4B10B51B6843B10E4804F084
:104080005AFCA8B90D48BDE8104004F054BCEFF349
:10409000108472B6084804F04EFC14F0010F00D1F1
:1040A00062B628B9182004F09BF808B10123037503
:1040B00010BD00BF780C0220F0940220E89402208A
:1040C00010B5037D53B9EFF3108472B60A4904F0BA
:1040D000FEFB14F0010F00D162B610BD022B04D11B
:1040E000EFF3108472B60549F1E7012BF5D1BDE875
:1040F000104004F06DB800BFF0940220E894022054
:104100002DE9F0410C46164698460546002847D052
:10411000002A45D0002943DBEFF3108772B64368CD
:104120000BB1FEF7FDFD204901346E600E68C5F845
:104130000C801EB9284604F0CAFB24E03046324603
:10414000002391685B1801D5116831B9A3420CDCDA
:10415000116829B9E41A1449ECE710460A46F0E759
:104160008868034410460A46F0E791689642A3EB3C
:104170000103A4EB0304A1EB040191600BD10A49F4
:10418000284604F0AEFBAC6017F0010F00D162B618
:104190000020BDE8F081044A294604F0A8FBF2E7BC
:1041A0006FF01500F5E700BFD094022038B50D4C34
:1041B000236843B19A680025013A9A60236813B1D5
:1041C0009B68002B00DD38BD204604F0B4FB23685B
:1041D0001BB19A6881680A449A6043684560C06868
:1041E0009847EBE7D094022008B53AB119B9FEF729
:1041F000FBF8404208BD00F037F8FAE711B9FEF7C6
:1042000027F9F6E700F034F8F3E708B528B1FEF730
:1042100035F9002803DA404208BD1620FCE70020EB
:10422000FAE7000038B50C46074B054653F8311045
:1042300003EBC4031B79DB0703D5FFF7EFFC2C77F7
:1042400038BD04F092FBFAE76C560C0C054B027F6C
:1042500010B553F83210044604F09DFB0023237779
:1042600010BD00BF6C560C0C0A46002100F004B8CB
:104270000A46002100F048B8204B2DE9F74380465C
:1042800089461E681546002A35D0002833D0EFF342
:10429000108772B600F0A0F8044680B16A68184B27
:1042A0009A4225D801AA2946484600F067F828B95D
:1042B000019C002C0BDC6FF0730400E0444217F00B
:1042C000010F00D162B6204603B0BDE8F0833C3652
:1042D00000F038F8214603460A4A3046FFF710FF3F
:1042E0004046FEF781F804463046FEF719FDE6E742
:1042F0006FF01504E3E76FF01504E4E77C8D02200E
:10430000FFC99A3B2143000C70B504460D46164682
:10431000324629462046FFF7AFFF031DF8D070BD97
:1043200010B5EFF3108472B6FEF740FF28B1037F9B
:10433000052B02D17421FFF7D0FC14F0010F00D13E
:1043400062B610BD054B186830B1037F032B01D155
:10435000C06870476FF00200704700BF7C8D02207C
:1043600002680B689A4204D306D840684B68C01AAA
:1043700070474FF0FF307047012070477FB50E4601
:1043800069461546FFF74EFB044608BB69463046B2
:10439000FFF7E6FF002805DA4FF0FF332B602046D9
:1043A00004B070BD019B7468009AE41A3368002C55
:1043B000A3EB02030394029304DA064A013B22446E
:1043C00002930392294602A804F002FB0446E6E7A2
:1043D0001624E4E700CA9A3B38B50E4B1D68B0B10D
:1043E000EFF3108472B6028812B2002A0CDD028844
:1043F000013A12B20280FEF7D3F90020A86514F04A
:10440000010F00D162B638BD6FF00A00F7E76FF018
:104410001500F8E77C8D022000F01AB838B50D467B
:1044200004462F21284605F0FFFE00B1451C284612
:1044300004F06DF9031E08DB04F07CF9C368236007
:1044400083682362436823770023184638BD000041
:10445000014800F003B800BFD800022010B50446A0
:1044600048B1FDF75BFF054B1A6822601C60FDF741
:1044700065FF002010BD6FF01500FBE700950220DE
:1044800037B504460D46002001A90BF003FB019B44
:10449000642B05D0642301A9002001930BF0C8FA16
:1044A00000F012F82946204600F02CF804460BF0E4
:1044B00097FA0449224600F51A7005F022FC012003
:1044C00003B030BD44230B0C08B500F007F8002101
:1044D0004FF60170BDE8084006F0EBBA002307B5BF
:1044E000054A009301230549054808F039FCC01727
:1044F00003B05DF804FB00BF6B230B0C72230B0CA5
:1045000077230B0C70B5054601200E4600F000F92C
:10451000044670B100F0C4F9204600F0C9F93346F2
:1045200001212A46204600F03FFCE369014620466F
:1045300098476FF00B0070BD00F52670704770B59E
:1045400004460E461546B2B1D0F888323BB1D0F8D9
:104550008C0205F0E0FAD4F8880205F0DCFAD4F811
:1045600084322B60D4F880326B60D4F88C32AB602C
:10457000D4F88832EB600023C4F88062C4F8883233
:1045800070BD38B50446D0F888520BF029FA00F512
:104590009C70854209D10BF023FA00F59C7005F060
:1045A000BAFA0123C4F8803238BDD4F8880268B161
:1045B00005F0B1FAD4F8880205F014F94FF0FF3392
:1045C000C4E9A0330023C4E9A233EDE7D4F88002A4
:1045D0000028F3DB0128F1D007F0F7FBEEE738B550
:1045E0000D460446FFF7CDFF2B68C4F884326B6894
:1045F000C4F88032AB68C4F88C32EB68C4F88832F7
:1046000038BD000010B5D0F8883204460BB1002048
:1046100010BD0949D0F8800205F0A8F8C4F8880256
:1046200030B1D4F88032C4F88C02C4F88432EEE79A
:104630004FF0FF30ECE700BF0E280B0C0EB417B59F
:104640000446FFF7DFFF58B906AA0599D4F88C0293
:10465000019205F063FB03B0BDE8104003B0704762
:104660004FF0FF30F7E70EB417B50446FFF7CAFF67
:1046700058B906AA0599D4F88802019205F04EFBB4
:1046800003B0BDE8104003B070474FF0FF30F7E7CC
:1046900073B505460C461646FFF7B4FFD8B9204659
:1046A000D5F888323246012105F0B2F9041E0BDA42
:1046B000D5F88062FCF76AFD03680320074A00937F
:1046C00033460749FCF744FDD5F8880205F023FA84
:1046D000204602B070BD4FF0FF34F9E720570C0CB4
:1046E00081230B0C10B50446FFF74BFFD4F8900262
:1046F00008B103F06DFD2046BDE8104003F068BD31
:104700000C4608B5FFF7EEFF2046FCF7E7FC00007B
:1047100038B505464FF4467003F072FD044628B3E1
:10472000134B144A0360144B42614360134B144A09
:10473000C360144B82618360134B80F87C52036129
:10474000124BC361022380F82232C0F884320BF08E
:1047500047F9012300F51A70C4F88032C4F88C02BE
:104760000BF03EF900F59C70C4F88802204638BD75
:10477000E546000C3F45000C9146000C6746000CD6
:10478000DF45000C3D46000C3945000C0147000C8C
:104790002DE9F74F0D461146044600F0BBF80646DA
:1047A000F8B12369204698470746002868D0364963
:1047B0003046D4F8248204F0F0FFC4F82402B0B9E3
:1047C000A768FCF7E3FC006805F004FD2F4B2A46C0
:1047D0002F4900902046B847304600F0BFF8C4F893
:1047E00024824FF0FF35284603B0BDE8F08F4FF02C
:1047F000FF35DFF8A890DFF898A00BF0F1F800F58E
:104800009C7005F088F9D4F8240205F079F80023AB
:10481000C4F828029842A4F82C320CDAD4F808B074
:10482000FCF7B4FC006805F0D5FC1A4B00904A4632
:1048300051462046D847D4F824228021384605F036
:1048400087F898B194F822329A0704D4E3683A467C
:104850001149204698473946204601F075FC054627
:104860000028CAD094F82232DB07C6D4D4F8240238
:1048700004F0B8FFC4F82482304600F06FF8B2E7C5
:104880004FF0FF35F8E700BF24270B0CAC230B0CCF
:1048900092570C0CB2230B0C13470C0CB8230B0CC7
:1048A000014A0249FFF774BFBD230B0CCC230B0C4C
:1048B00038B50446FDF732FD084B01221D781A7009
:1048C000FDF73CFD45B9064A20460649FFF760FF63
:1048D000022384F8223238BD0020FCE70495022030
:1048E000D4230B0CCF230B0C08B50249C36898479F
:1048F000002008BD163C0C0C08B50448FDF7D8FB99
:10490000034B002808BF184608BD00BF3A570C0CDF
:1049100031570C0C70B506460C4609B10B7823B91B
:104920000C48BDE8704005F047BC2F2B01D108466C
:10493000F7E7FFF7E1FF08490546204605F0D2FCFE
:1049400008B92846EDE7224629463046BDE87040C2
:1049500000F018BC31570C0C4CAD0B0C08B103F037
:1049600037BC704701292DE9F341064617464EDD55
:1049700055682949284605F0B5FC0446002847D06B
:104980002649284605F0AEFC044650BB2448FDF7F6
:104990008FFB244B002808BF184605F00DFC80460D
:1049A00005F076FD054670B13F68B568FCF7EEFB93
:1049B000006805F00FFC1C4B00903A461B4930463E
:1049C000A8474FF0FF35B8F1000F02D0404603F082
:1049D000FFFB14B12046FFF7C1FF284602B0BDE837
:1049E000F0811349284605F07DFC044638B9FFF7ED
:1049F00083FF05F0E1FB804603F036FFD0E7294650
:104A00003046FFF787FF4FF000080446C8E7002450
:104A1000A0460448C4E700BFE4230B0C11270B0C8D
:104A200033570C0C31570C0CE6230B0C92570C0C23
:104A3000D95C0B0C2DE9F04F012387B00746904657
:104A40004FF0000A5F4C02910193224641460298C2
:104A500005F0F0FC431C10D105F0F9FCD0F80090F3
:104A60004FF05C0B08EB8908029B99451FDB019B0B
:104A7000002B40F0A18000200DE065280ED06E28AC
:104A80000FD0452810D0BB683846D8F800204E49D2
:104A900098474FF0FF3007B0BDE8F08F4FF0010AA4
:104AA000D3E700230193D0E74FF0000ACDE705F0EC
:104AB000CEFC03684B4503D0FB6838464349984712
:104AC000BAF1000F63D0D8F800502C462B780BB900
:104AD00023705CE05C2B04D02E4604F8013B751C6F
:104AE000F4E76B786E1C0D2B0AD80D2B0ED8DFE87F
:104AF00003F04A0D0D0D0D0D0D57590D5D615B5FF6
:104B00005C2B35D0782B08D0302B16D0234603F8F9
:104B100002BB6A7862701C46E1E703350023049605
:104B200016F8012F05931046039203F024FE059B0F
:104B3000DDE90321A0B90E461AE00435002173789F
:104B400032460136303BD8B2082803D9164604F85D
:104B5000011BC4E7AE4203EBC101F0D13246F5E7D9
:104B6000A2F130011B01092905D80B44AE42D6D170
:104B700004F8013BB3E71046039303F00AFE039BDE
:104B800057380344F2E7002384F800B06370FB68F1
:104B9000384658F8042B09F101090D49984763E795
:104BA0000723E5E70823E3E70C23E1E70A23DFE730
:104BB0000D23DDE70B23DBE7FB6838460549984703
:104BC00059E700BFEC230B0C22580C0C1B540B0CA8
:104BD00013470C0C8ABB0B0C2DE9FF474E4B1646B6
:104BE0000DF10C0801291A8804469B780D46ADF892
:104BF0000C2088F802300DD10022484900F094FBC7
:104C00000546E3682046ED1745499847284604B015
:104C1000BDE8F087022901D0042968D177683846B9
:104C200005F087FB01280FD83668A568FCF7AEFAB7
:104C3000006805F0CFFA3B4B32463B4900902046D6
:104C4000A8476FF01505E1E797F80090B9F12D0F2F
:104C50000ED0B9F12B0F0BD03668A568FCF796FA89
:104C6000006805F0B7FA2F4B324630490090E6E76E
:104C70004FF0010A17F8011F11F0DF0F22D10223B4
:104C8000033D012D46D801339D0056F8230000F066
:104C90005BFA0746043D7059FDF70AFA48BB7159A3
:104CA0003A46204600F0E2FA051EAFDA6842A768ED
:104CB000366805F08FFA1E4B009032461D4920469B
:104CC000B847A3E7404605F003FB0028C4D0A0EB9B
:104CD000080394F82222B9F12B0F0AFA03F30ABF52
:104CE000134322EA0303DBB284F82232C2E7012332
:104CF000C6E7705901223946FEF710F9051E85DA1C
:104D0000A7683668FCF742FA006805F063FA0A4BB8
:104D10000090D2E7002579E7C9B20B0CE948000CF6
:104D20008ABB0B0C87F30B0C56580C0C22580C0C3E
:104D3000F0230B0C92570C0C0A240B0CF7B551689E
:104D40000446154600F0CCFA002825DA831C23D04F
:104D50002F684042A66805F03DFA104B3A46009095
:104D600020460F49B0474FF0FF366868FEF744F918
:104D700000280EDA2D68A668FCF708FA006805F02E
:104D800029FA084B00902A4605492046B0474FF0C3
:104D9000FF36304603B0F0BD0026E6E7FB230B0CE0
:104DA00092570C0C08240B0CF7B5044617461D4609
:104DB00041B1D0F88812374804F074FFD4F8880263
:104DC00004F0A9FE012F29DC334F04F52676D4F830
:104DD0008812384604F066FFD4F8880204F09BFE7F
:104DE0000AF0FEFD05460AF0FBFD802100F59C73EC
:104DF00005F10802304600F0B0FA013040D1D4F895
:104E00008C42FCF7C3F9006805F0E4F9234B0090ED
:104E10002046234A234904F074FF0AE06E682249C1
:104E2000304605F05FFA30B9E36820462A681F492A
:104E30009847002013E01E49304605F053FA80B928
:104E4000022F06D0A968204603B0BDE8F04001F06B
:104E50007BB9A3682A68174920469847012003B008
:104E6000F0BD337829682D2B03D10A46A368124977
:104E7000F2E73246204603B0BDE8F040FFF788BCB9
:104E80003146204601F060F9D4F8880204F043FE70
:104E90009DE700BF9A580C0C94580C0C3F240B0C47
:104EA00048240B0C92570C0C11240B0C14240B0CE3
:104EB0003C240B0C56580C0C7D580C0C2DE9F74F6C
:104EC00004460D4610460121164607F0BDF9071E9F
:104ED0001DDA05223F49304605F096F928B9A76842
:104EE00033462A463C492046B847A668FCF74EF9A7
:104EF000006805F06FF9394B00904FF0FF392A46F2
:104F000037492046B047484603B0BDE8F08F4FF41C
:104F1000007003F065F9064658B9384606F055FFAB
:104F2000A668FCF733F9006805F054F92D4B0090A2
:104F3000E3E74FF00009DFF8B4A021E005F04AF9FB
:104F4000294B00902A4626492046C0472CE02DD008
:104F50004FF000086368ABEB080206EB080120463F
:104F60009847002832DAFCF711F90068D4F8088075
:104F7000042822D12A4651462046C0474FF0FF3927
:104F80004FF400723146384607F098F9B0F1000B43
:104F9000DDDAFCF7FBF80068D4F808800428CDD1EE
:104FA0002A4612492046C0474FF0FF39384606F0DE
:104FB0000CFF304603F00CF9A5E705F00BF90C4B9C
:104FC00000902A4606492046C047D7E78044C3459B
:104FD000C0DCD5E754240B0C5A240B0CAD230B0C6E
:104FE00092570C0C8B240B0C35520B0C41570C0CAC
:104FF00043520B0C2DE9F74F054688461046012118
:105000001F4607F021F9061E11DAAC684FF0FF3A8F
:10501000FCF7BCF8006805F0DDF81D4B0090424637
:105020001C492846A047504603B0BDE8F08F0C9BB2
:105030000024B94603F1FF3B3C705A4649463046CE
:1050400007F03CF9B0F1000A16DAFCF79FF80368A4
:10505000042B19D0AC68FCF799F8006805F0BAF891
:105060000D4B009042460B492846A0474FF0FF3AAF
:10507000304606F0AAFED6E7FAD054444FF00003BB
:10508000D144ABEB0A0B3B550C9B002BD5D1EDE784
:10509000AD230B0C92570C0C35520B0C2DE9F34140
:1050A000044610460F461546984603F078FB064620
:1050B000E8B905221749284605F0A6F828B9A668D8
:1050C0002B463A4614492046B047A568FCF75EF8DF
:1050D000006805F07FF8009020464FF0FF340F4B3A
:1050E0003A460F49A847204602B0BDE8F081304655
:1050F00003F083FB024658B1089B29462046C0476F
:105100000028F4DA4FF0FF34304603F063FBEAE79F
:105110000446F9E754240B0C5A240B0C92240B0C74
:1051200092570C0C10B5044605F003F90021231822
:105130001A1B013A002A03DD13F8012C2F2A00D094
:1051400010BD03F8011DF3E7F8B5044620782546A5
:105150002646013468B92846002705F0EAF82C18DD
:10516000B44204D014F8010C03F0FBFA30B928461D
:10517000F8BD03F0F6FA0028E8D1ECE704F8017D69
:10518000EEE70000F7B50D460446104916462846DE
:1051900004F1200705F0A6F878B933460C4A4FF41D
:1051A0000071384603F02DFD0023384684F8203185
:1051B00003B0BDE8F04004F0FFBF2B46054A4FF4B2
:1051C00000713846009603F01CFDEDE7BE7E0B0C27
:1051D00046590B0C44590B0C70B5D0E9A4450E464A
:1051E0002544AC4212D2701E611E10F8012F11F836
:1051F000013F9A42F9D01AB93D2B01D1204670BD2A
:10520000204605F096F801300444EAE70024F5E76B
:1052100070B5D0E9A43605460C468B421E4416D81C
:105220008E4214D9084605F084F80130631E044408
:10523000321B002A06DCD5F894321B1A0020C5F870
:10524000943270BD14F8012B03F8012FF0E74FF0F2
:10525000FF30F6E708B5FFF7BFFF034618B13D2161
:1052600005F036F8431C184608BD0000F8B5D0F824
:10527000903205460E46174633B1FFF7ADFF0146A3
:1052800010B12846FFF7C4FF304605F052F8044637
:10529000384605F04EF80444D5F890020234B0B117
:1052A000D5F894321C44214602F0A2FF024610B900
:1052B0006FF00B00F8BDD5F8943218443B4607490F
:1052C000C5E9A424324603F078FC0020F2E720462A
:1052D00002F086FF0028EBD00246EFE73E230B0CDE
:1052E00010B5044698B1FFF777FF014678B1204624
:1052F000FFF78EFFD4E9A40100290CDC20B102F0F5
:1053000067FF0023C4F890320023C4F89432FDF7FD
:1053100015F8002010BD02F06BFF10B1C4F8900228
:10532000F5E76FF00B00F5E72DE9F041D0E9A44671
:1053300005460F4690462644B44202D30020BDE8FD
:10534000F081224641462846B8470028F7D120463A
:1053500004F0EFFF01300444EEE75B68526800F0B0
:105360002FB8006907F094BA13B504468DF80710FA
:1053700001220DF10701206907F08AFA002802DBFB
:10538000F6D002B010BDFBF701FF0368042BF7E76E
:1053900013B5044601220DF10701E06806F08EFF07
:1053A000002809D003DB9DF8070002B010BDFBF711
:1053B000EDFE0368042BEDD04FF0FF30F5E7000061
:1053C00010B586B0074C0492074A01940292074A2E
:1053D000059303920A46014601A800F009F806B0B9
:1053E00010BD00BF9153000C6953000C6353000CB7
:1053F000012A2DE9F04706460F46914604DC0024B9
:105400000C702046BDE8F0870025836803222C49F4
:1054100098474FF00008336830469847431C0446CD
:105420000BD1002DEDDD00232C467B55E9E74FF035
:105430000108F0E74546D046EDE7B8F1000F09D086
:105440005B28E6D1B8F1020818BF4FF001084FEA17
:105450004808E0E71B28EAD012DC0A2812D00D2801
:1054600010D0082817D1002DD5DD736830460821EB
:10547000013D9847B3680322114930469847CAE76F
:105480007F28EFE76C1C0A210023304679553B55F5
:1054900073689847B5E7E0B203F05AF982460028EE
:1054A000B9D17C5505F101080235736821463046B3
:1054B00098474D45BEDB444607F808A0A1E700BF6A
:1054C0003E570C0C90F82F220346033200EBC20229
:1054D00092F82402800901280CD1002081F00101FA
:1054E00083F8210292F8243261F3000382F8243217
:1054F00000207047022803D1002083F82102F1E741
:1055000093F830221A4492F83102800901280CD114
:10551000002083F8210292F83132C3F38000414029
:1055200061F3000382F83132E2E7484283F8211246
:105530007047024610B50023104612F8014B5C2C50
:1055400000D143B18C4202D1002BF4D110BD002C0C
:10555000F1D12046FAE70123EEE70023027802B9F1
:1055600070475C2A00F101010AD14BB903465A7811
:1055700003F8012B002AFAD1014601230846EDE782
:105580000023FBE790F82F32024600EBC30393F8A9
:105590003C329909032902D113F001000CD092F892
:1055A00030321A4492F8310283070CD48309022B5B
:1055B00005D0032B04D0012000F001007047C04348
:1055C00000F00100F8E70020F6E700002DE9F041C7
:1055D000804617460C46B9B1084604F0AAFE0646B6
:1055E000384604F0A6FE411C2046314402F000FE7D
:1055F000054658B92546D8F80830074A40460749B5
:1056000098472846BDE8F0810E46E9E70023394671
:10561000835504F0B3FDF4E79A240B0C7A570C0C75
:105620002DE9F04186B00E4604461546DDF830807F
:105630001F46CDF80080116801F026FE002808DB27
:1056400014BF01210021204606B0BDE8F041FFF75C
:1056500039BF94F82032EBB141464FF4DB72384643
:1056600006F0F2FD011E0EDA2D68A668FBF78EFD2E
:10567000006804F0AFFD104B00902A460F49204609
:10568000B0470121DFE794F820321BB1636902AA19
:10569000204698472A463146204600F0C7FD94F838
:1056A000203205461BB1A36902A920469847002D68
:1056B000E7DB0021C7E700BFAD230B0C92570C0CB2
:1056C000F8B50025044606462F4623689D4201DBB7
:1056D0002760F8BD56F8040F013502F079FD3760F8
:1056E000F3E700002DE9F04F0446BBB00E46D1F8B9
:1056F0000090A34F0592039399F800804D4609F15D
:105700000109B8F1000F17D04146384604F0E0FD1A
:105710000028F1D1B8F13E0F0AD16B783E2B0DBFB6
:105720000235984DC6F80090356008BF964D04E0EC
:10573000B8F1230F05D13560002528463BB0BDE800
:10574000F08FB8F1220F039B8D4F824604BF0023D8
:105750004D460393A9468D4B08BF1F460346C846D6
:1057600019F8011B69BBC6F80080AA4600268849C3
:10577000504604F013FD83460AEB0B0707F10108BE
:1057800097F80090BBF1000F4DD0B9F1000F33D165
:10579000002E68D0314652462046FFF717FF0546D7
:1057A000FFF7DBFE2E46002EC7D0059B1B681D2B86
:1057B000C3DC059A02EB830201335660059A13603D
:1057C000BBE718B102785C2A00D193B15C2903D001
:1057D000602903D18AF0010A00230BE0BAF1000F1F
:1057E000FAD13846FFF7A5FE0028F5D008F801AB3E
:1057F000B9E701234046B2E70BF1FF3300225344DF
:10580000A3EB0B0013F801195C2903D1834282F04A
:105810000102F7D152B10BF1010B5D49781C04F084
:10582000BDFC8344A8E7B9F1000FB1D0B9F1600F16
:1058300040F057814FF00003B8463146524608F811
:10584000013B2046FFF7C2FE494606464046FFF7A9
:1058500070FE049058B94F4BA5681A464E49204631
:10586000A8474E4D9FE72846FFF777FE65E7049B64
:105870004FF000021A7000230693FEF763FD484ABA
:105880000346484906A803F0AFF9002804DBDDF819
:105890001890B9F1000F18D1A3682046424A434935
:1058A00098474FF000083D4F31463A462046FFF7F3
:1058B0008DFE0646B8F1000F02D0404602F088FC8B
:1058C000049B03F10108C24651E74C22002108A8BD
:1058D000012704F0B5FC7C2200211BA804F0B0FCD9
:1058E00094F820B200231BAA07A9204684F820724E
:1058F000CDF81C80FFF7F6FE804650B32046FFF738
:1059000041FE20B30DF1200ACDF8208000231BAA10
:1059100007A92046FFF7E6FE4AF8040F10B1013749
:10592000122FF3D13AAB00220F2F03EB870343F87A
:10593000C82C04DDA36842461D492046984726230B
:1059400008AA3946204600934B46FFF769FE0746F2
:1059500000E007461BA884F820B2FFF7B1FE6FB342
:10596000A768FBF713FC006804F034FC114B0090AF
:1059700020460D4A1049B847069802F029FC90E7E6
:10598000CD580C0CC3580C0CC0580C0C9C240B0CA0
:10599000C5580C0CB1240B0C3D580C0CB9580C0C10
:1059A0009E240B0CA3240B0CB0240B0C7A570C0C6C
:1059B000E9570C0CB3240B0C92570C0CDDF8188033
:1059C0001BA9404606F0B0FE834620B3A768FBF74C
:1059D000DDFB006804F0FEFB6F4B009020466F4A31
:1059E0006F49B8474FF000086E4F069806F01AFF4F
:1059F00000280CDAD4F80890FBF7C8FB006804F024
:105A0000E9FB694B00902046644A6549C8470698FF
:105A100002F0DEFB48E7DDF8849009F1010002F0B6
:105A2000DFFB074628B9A36820465C4A5F499847D0
:105A3000D8E74046012106F007FCB0F1000833DA50
:105A4000D4F80880FBF7A2FB006804F0C3FB584BB6
:105A500000902046514A5249C047384602F0B8FBF0
:105A6000C0E74FF40072404606F028FC00281ADA1E
:105A7000FBF78CFB0368D4F80890042B07D1474A46
:105A800020464C49C847404606F09FF9E5E7FBF73A
:105A90007DFB006804F09EFB474B009020463F4A88
:105AA0003F49C847EFE78344D94507EB0B01D8D8F6
:105AB0008A46DFF82091BA4507D01AF8011C4846FB
:105AC0000AF1FF3B04F004FC48B90023AAEB070AE3
:105AD0004046B84607F80A3006F077F985E7DA4617
:105AE000E9E7B9F1240F7FF4EEAE4FF00003B946B9
:105AF0003146524609F8013B2046FFF767FD7B78A7
:105B000006467B2B32D107F102097D214846FFF77B
:105B100010FD18B9A568294B294A9FE680464FF029
:105B2000000308F8013B039B13B10123039A1360A0
:105B30002449484604F0D6FBF0B994F82112224AD1
:105B4000224F00290CBF9246BA4694F822329B0796
:105B500005D453464A461E492046E768B8473146B1
:105B600052462046FFF732FD0646ACE6484604F0B2
:105B7000E0FB09EB0008D6E749462046FFF76AFB41
:105B800082460028E1D14846FCF792FA054B0028EE
:105B900014BF82469A46D8E7B8240B0CB0240B0CED
:105BA00092570C0CB9580C0CBD240B0C7A570C0CEA
:105BB000AD230B0C41570C0C35520B0CC4240B0CB1
:105BC000C6240B0CBE580C0CBC580C0CBA580C0C50
:105BD000C9240B0CCD580C0C2DE9F04FB7B004467E
:105BE0000D464C22002104A804F02AFB7C2200214F
:105BF00017A804F025FB002317AA02A9204684F861
:105C000020320295FFF76EFD0546002800F0BE80A9
:105C1000A84904F067FB8146A749284604F062FBC7
:105C2000B9F1000F02D0002840F08C80002317AAA1
:105C300002A92046FFF756FD074608B103781BB9B5
:105C4000A3682A469D4925E094F8308204EB0803B6
:105C500093F831329B09012B14D094F82F6204EB96
:105C6000C60393F83C32C3F38113033303F00303F9
:105C7000012B07D9D4F8243223B1D4F828A2BAF1E1
:105C8000000F02DAA3682A4678E0062E1BD9A36823
:105C90002A468B492046984794F83C32002203F06C
:105CA0003E03A4F82E2243F00103C4F8402284F8F6
:105CB0003C3217A8FFF704FD0121204637B0BDE8AC
:105CC000F04FFFF7FFBB0136B9F1000F2046F6B2E7
:105CD00014BF02250125FFF755FCF21C002384F8B0
:105CE0002F6204EBC60604EBC20284F82E3240EAAF
